:020000040800F2
:10000000C012002001020008852E0008E52D00081E
:10001000812E0008311F0008D93E000800000000B2
:100020000000000000000000000000004D35000846
:100030004D2A000800000000DD31000839360008B4
:100040001B0200081B0200081B0200081B0200081C
:100050001B0200081B0200081B020008512A0008AE
:100060001B0200081B0200081B0200081B020008FC
:10007000792300081B0200089D2300081B020008CA
:10008000C52300081B0200081B0200081B02000811
:100090001B0200081B0200081B0200081B020008CC
:1000A0001B0200081B0200081B0200081B020008BC
:1000B000133700081B0200081B0200081B0200087F
:1000C0001B0200081B0200081B0200081B0200089C
:1000D0001B020008AD390008CD3A0008F13B0008CA
:1000E0001B0200081B0200081B0200081B0200087C
:1000F0001B0200081B0200081B0200081B0200086C
:100100001B0200081B0200081B0200081B0200085B
:100110001B0200081B0200081B0200081B0200084B
:100120001B0200081B0200081B0200081B0200083B
:1001300000F002F800F054F80AA090E8000C8244A5
:100140008344AAF10107DA4501D100F049F8AFF282
:10015000090EBAE80F0013F0010F18BFFB1A43F0A5
:1001600001031847BC4F0000DC4F0000103A24BFC9
:1001700078C878C1FAD8520724BF30C830C144BF0C
:1001800004680C607047000000230024002500264E
:10019000103A28BF78C1FBD8520728BF30C148BFEA
:1001A0000B607047642900F0E380782900F01C811F
:1001B000002070471FB59DE8030000F017FB00F01A
:1001C0009FFC04000020002104F03CFC401C606007
:1001D0000020002104F04CFCE0601FBD10B510BDF4
:1001E00000F0EBFC1146FFF7E5FF04F04DF800F0DE
:1001F00091FF03B4FFF7F2FF03BC01F001F8000028
:100200000948804709480047FEE7FEE7FEE7FEE7AA
:10021000FEE7FEE7FEE7FEE7FEE7FEE704480549E6
:10022000054A064B704700005536000831010008AA
:10023000C00C0020C0120020C00E0020C00E002004
:1002400070B5064600F0B2FA056806F10B0020F022
:100250000704B4429CBF002070BD2B466A68BAB147
:100260001068A04210D304F1080188423CBF5068D6
:10027000586007D35168101941601168091B01606B
:1002800058601460101D70BD13465268002AE7D1F3
:100290002146284600F096FA0028DED170BD70B5E0
:1002A0000446051F00F082FA0068002C14BF446861
:1002B00070BD002C18BFAC423CBF20466468F8D328
:1002C00001680A18AA4218BF456003D12A6805468A
:1002D0001144016028684119A1421CBF6C6070BDC7
:1002E0006168696021680844286070BD0FB41CB55E
:1002F0000C0007AA009001D02044401E074B7B440D
:1003000069460190069800F006FB002C03D0694670
:10031000002000F013FB1CBC5DF814FB4506000038
:1003200070B5044685690068C10601D5302600E035
:100330002026C00707D070BDD4E901213046904780
:10034000206A401C20626D1EF6D570BD70B5044653
:1003500085690078C00707D170BDD4E9012120204C
:100360009047206A401C20626D1EF6D570BD0000CB
:100370002DE9F0410646002410687529314616A57E
:1003800010D0AFF30080002802DA404213A507E046
:1003900031688A0701D512A502E0490704D511A5E5
:1003A000012401E0AFF3008000210A2206F12407B6
:1003B00009E0B0FBF2FCB0FBF2F302FB1C003030B2
:1003C00078541846491C0028F3D123462A46304663
:1003D000BDE8F04100F040BA000000002D00000030
:1003E0002B0000002000000070B504460D46214699
:1003F0001068AFF300802188090502D50F4A7A44BE
:1004000002E00E4A7A440E32002104F1240305E092
:1004100000F00F060009965D5E54491C0028F7D1D4
:1004200020780023000704D5702D02D009B10223E3
:1004300011322046BDE8704000F00EBA984B000023
:100440002DE9F05F894604464FF0000ADFF824B139
:10045000FB44C0F820A02046E168884700287DD0F2
:10046000252806D0D4E901219047206A401C20624B
:10047000F1E700255F462046E168884720280646C8
:1004800007DB312E05D2B81910F8200C08B105434E
:10049000F1E7A80701D525F00405C4F81CA0002742
:1004A000C4F818A02A2E09D0304603F098FD38B3BE
:1004B00004EB8708303EC8F8186019E059F8041BAF
:1004C000204604EB87029161E1688847012F0646C8
:1004D00018D1E069002820DA25F020051DE0D8F8C1
:1004E000180000EB800006EB40003038C8F8180018
:1004F0002046E1688847064603F071FD0028EED1EA
:10050000012F0AD02E2E08D12046E16888477F1C93
:100510000646022F45F02005C4DBA069002803DA57
:10052000404245F00105A061E80701D025F0100523
:10053000A6B1A6F14100192802D8203645F400657D
:100540004A463146204625604D46FFF72BFE60B1F6
:10055000012807D0ED1D25F0070000E007E000F1BD
:10056000080978E705F1040975E730467AE7206A5B
:10057000BDE8F09F6E4B00002DE9F04791460F4615
:1005800080460446002614F8015B2DB100F006F900
:100590000068405DC007F6D12B2D02D02D2D18D05C
:1005A000641E4A463946204600F0D5F927B139681D
:1005B000A14201D1C7F800804FF0020471050BD5AC
:1005C0004042002803DD00F0F5F80460A007BDE814
:1005D000F08746F48066E4E70028F8DA00F0EAF8ED
:1005E00004606FF00040F2E710B504780CB10A46E1
:1005F00003E0002010BDA342FCD012F8013B002B09
:10060000F9D1401CF1E740EA0103024630B59B07EF
:1006100010D14FF0013400E008C208C91D1B9D43F2
:1006200015EAC41FF8D013F0FF0102F8011B0DD02A
:100630001B0AF8E711F8013B002B02F8013B05D03B
:1006400011F8013B002B02F8013BF3D130BD10B58E
:10065000431C02E010F8011B71B18107FAD14FF081
:10066000013202C88C1A8C4314EAC211F9D0C01AA4
:100670000A0603D0C01E10BDC01A10BD0A0401D066
:10068000801E10BD0902FCD0401E10BD10B5203ADE
:10069000C0F00B80B1E81850203AA0E81850B1E83B
:1006A0001850A0E81850BFF4F5AF5FEA027C24BFF1
:1006B000B1E81850A0E8185044BF18C918C0BDE8E8
:1006C00010405FEA827C24BF51F8043B40F8043BB1
:1006D00008BF7047D20728BF31F8023B48BF11F866
:1006E000012B28BF20F8023B48BF00F8012B7047C0
:1006F0004FF0000200B5134694469646203922BFBB
:10070000A0E80C50A0E80C50B1F12001BFF4F7AF05
:10071000090728BFA0E80C5048BF0CC05DF804EBE7
:10072000890028BF40F8042B08BF704748BF20F855
:10073000022B11F0804F18BF00F8012B704710B545
:10074000044610F0030F08BF11F0030F40F01580AE
:100750004FF0013E121FC0F20E8051F8043BA3EB94
:100760000E0C2CEA030C1CEACE1C08BF40F8043B1C
:10077000F0D0A1F1040102F10402521E08DB11F8CD
:10078000013B002B00F8013BF7D1114600F091F935
:10079000204610BD704770477047000010B500F04C
:1007A000AFF9001D10BD00BF9D420000004870471A
:1007B000680C002000487047600C002070477047AC
:1007C0007047704738B504460A4600206946AFF3C3
:1007D0000080002808BF38BD02460099204600F07E
:1007E00093F9012038BD012000F0DFB9F8B5AFF36F
:1007F0000080054600200C46102000BF0646A819C0
:10080000A0420DD9324669460020AFF300800700B0
:1008100008BF00F0CAF90098A04218BF0546C419E5
:10082000FFF7C4FF05600746F01D20F007004619DA
:10083000284600F00AF8B44208BFF8BDA21B3146B2
:100840003868BDE8F84000F05FB900210160C0E9F8
:1008500001107047102070472DE9F0470D4699466A
:100860009246044600F124080168880604D5E06930
:1008700021F01001216000E00120A84201DD471BAA
:1008800000E00027A1697A1902EB0900081AA061AB
:100890002078C00602D42046FFF742FD002608E07B
:1008A000D4E901211AF806009047206A401C761C02
:1008B00020624E45F4DB2078C0060AD52046FFF7BB
:1008C0002FFD06E0D4E9012130209047206A401C2A
:1008D0002062381EA7F10107F4DC07E0D4E901210A
:1008E00018F805009047206A401C2062281EA5F1D8
:1008F0000105F3DC2046FFF729FD2078000602D52C
:100900000220BDE8F0870120FBE7000001694A1CD6
:1009100002610878704700B58FB0CDE90131002140
:10092000059105497944CDE9031011466846FFF762
:1009300087FD0FB000BD0000E5FFFFFF0A6802F869
:10094000010B0A607047D1E900239A4202D2531C7E
:100950000B60107070472DE9F05F824615468B469C
:1009600000270AF10104B9460078302801D09DB172
:1009700013E014F8010B0127782803D0582801D080
:1009800045B10AE00DB1102D07D1002714F8010B75
:10099000102502E0082500E00A250026B0460EE0FA
:1009A00005FB080005FB06F101271FFA80F801EBA3
:1009B0001046B6F5803F00D3B94614F8010B29461E
:1009C00000F0C5F80028EBDABBF1000F05D00FB13D
:1009D000641E00E05446CBF80040B9F1000F06D089
:1009E000FFF7E8FE02210160C81EBDE8F09F48EA5B
:1009F0000640FAE70FB4002300B589B00CA90091B6
:100A00000B99CB60214B7B440693214B7B4407938E
:100A100004236FF00042CDE901321E4A7A446B464E
:100A200008920246002004F09AFA09B05DF814FB1F
:100A300070B506464FF0FF3015460C46324686B07C
:100A40000091CDE9010169460020049004A8FFF758
:100A5000D1FF02460498211825B108B1084600E0EC
:100A600020462860049800280DD0002A02DD009856
:100A7000884208D03246081B69460094CDE901043B
:100A800004A8FFF7B7FF06B070BD000061010000C9
:100A9000790100001D0100007CB505460023684671
:100AA000CDE90033FFF7C4FF6946284603F026FA74
:100AB0007CBD4FF000020429C0F0128010F0030C3E
:100AC0003FF418AECCF1040CBCF1020F18BF00F8D3
:100AD000012BA8BF20F8022BA1EB0C01FFF70ABEE7
:100AE0005FEAC17C24BF00F8012B00F8012B48BF4E
:100AF00000F8012B7047000000487047600C002090
:100B000000487047800C0020034640688C4600284F
:100B100018BF88423CBF03464068F8D318681844A1
:100B2000884207D00CF1030020F00700001D411A95
:100B3000521A0146081D0A60FFF7B1BB10B5044602
:100B4000FFF72CFE0068005D00F0010010BD3A28A0
:100B500000D2303820F02002412A01D3A2F1370020
:100B6000884201D34FF0FF307047426842B10168BC
:100B700011F8013B23B1521EC0E90012184670471C
:100B80000121C160881E704742685AB1C36801687C
:100B900043B983688B4205D0491E521CC0E900123C
:100BA000002070474FF0FF30704710B500F0C0FADA
:100BB000BDE8104000F0B7BA70477546FFF79CFFDC
:100BC000AE4605006946534620F00700854618B03A
:100BD00020B5FFF723FBBDE820404FF000064FF0A3
:100BE00000074FF000084FF0000B21F00701AC4662
:100BF000ACE8C009ACE8C009ACE8C009ACE8C00981
:100C00008D46704710B5FFF7D5FD006810BD10B5D3
:100C10000446FFF7CFFD046010BD00002DE9FF4F33
:100C200006468BB00878FF2806D0491C2D2805D031
:100C300000244FF0000908E000200CE00124F8E750
:100C400009EB8903491C00EB43090878FF28F7D119
:100C500014B1C9F100008146107800252C46AA463F
:100C600029462D2801D02B2804D1521C2D2813D021
:100C7000002082468B461078FF280FD04FF0000CE2
:100C80000A21521CA5FB017804FB018105FB0C1114
:100C9000C5194BEB0104EEE70120EAE70021084605
:100CA0004FF00000BAF1000F02D000EB80004008C6
:100CB000C0F38157012F01DD4FF0FF370E9955EA40
:100CC000040009EB01080BD04FF0020918F5FA7F78
:100CD00016DA4FEACA70002F706008DD012007E0C5
:100CE0004FEACA70C6E900B00FB0BDE8F08F00202F
:100CF0003060FFF75FFDC0F800901821084616E04D
:100D0000B8F5FA7F18DD002F02DAF748784401E0E1
:100D1000F6487844D0E90010C6E9001040EACA70ED
:100D20007060FFF747FDC0F80090142108460FB02F
:100D3000BDE8F04F04F0B0B8002108464FF00000C5
:100D4000B8F10001099002DAC7F1000200E03A466A
:100D500001DAC8F1000106A800F058FA06AB93E8E2
:100D6000070003AB83E8070044F23E005BEA04019E
:100D70000090584604D144F21E012C465D46009175
:100D8000210C0904014306D10099240444EA1544C6
:100D90002D041039009104F07F41014306D10099E0
:100DA000240244EA15642D020839009104F07041D0
:100DB000014306D10099240144EA15742D01091F4D
:100DC000009104F04041014306D10099A40044EA97
:100DD0009574AD00891E009104F00041084304D1D0
:100DE00000986D196441401E00904FF001033A468F
:100DF0006846B8F1000FCDE9014503A902DD00F016
:100E000060FF01E000F033FFBAF1000F04460D4629
:100E100001D084F00044002108464FF000000999F9
:100E200040F2FF77484010F00C0F07D124F000404B
:100E3000284303D0C4F30A50B84212D1FFF7BAFCDA
:100E4000C0F80090C4F30A50B8420AD1A8487844C8
:100E5000D0E90010C6E9001004F0004108437060BA
:100E600042E7C6E900543FE72DE9FF4F1F464FF028
:100E7000000A4FF0FF38454691B0D7E90146CDF85A
:100E80003CA0FFF73DFEC0680168405C1090B96966
:100E900012986D1C8847396A814688470028F6D128
:100EA000B9F1FF3F0AD0002E24F4D06411DDB9F16E
:100EB0002B0F08D0B9F12D0F0BD102E0404615B031
:100EC00013E744F48064B96912986D1C8847761E54
:100ED0008146600504A901D52D2000E02B20002EBD
:100EE00001F1010B0DF130088DF810003FDDB9F173
:100EF000690F08D0B9F1490F05D0B9F16E0F02D0D2
:100F0000B9F14E0F1CD13B4601A8009580E8500274
:100F1000DDE912126FF0020004F025F8C11CCED1F9
:100F20000EE0B96912986D1C884781461398761EA9
:100F300044F4007405600F98401C002E0F9016DDDD
:100F4000B9F1300FEDD0B9F1780F02D0B9F1580FE7
:100F50000DD10F9801280AD13B46CDE90054DDE9B7
:100F60001212001F029603F0FCFFC11CA7D11099BA
:100F700089453ED144F0800406E01399681CAAF12B
:100F8000010A44F400740860B9696D1C1298761E59
:100F9000884730288146F0D02BE01099894505D14B
:100FA000200603D4761E44F0800418E0484603F07F
:100FB00016F808B3761E0DF123018B4544F4007436
:100FC00008D2A9F130000BF8010B200607D5AAF1D1
:100FD000010003E0200602D40AF101008246A005C8
:100FE00002D51399681C0860B96912986D1C88476E
:100FF0008146002ED1DC53E0002E51DDB9F1650FA2
:1010000002D0B9F1450F4BD1A00549D5B9696D1C86
:101010001298761E24F440748847002E81460CDD19
:101020002B2804D0B9F12D0F07D144F48074B9698D
:1010300012986D1C8847761E8146E00501D52D214A
:1010400000E02B2108F8011BCDF8008021E0761E7E
:101050000DF13901884544F400740CD2A9F1300037
:1010600010F0FF0088F8000002D10099884509D9E6
:1010700008F1010806E0E00501D51E4801E042F252
:101080000F708246B96912986D1C88478146139883
:101090000560002E04DD484602F0A1FF0028D6D1ED
:1010A000F96912988847FF2053468BF8000088F8AA
:1010B000000000200A900B9004AA0CA90AA8FFF7D0
:1010C000ADFDA00502D46FF00100F8E614F0240F86
:1010D00012D0E0071CD13868DDE90A12031D3B601D
:1010E0000068C0E9001213E0384400002A44000000
:1010F000EE420000F1D8FFFF0AA9684602F0FEFEAA
:10110000E00705D13868009A011D39600068026067
:101110002846D4E610B50446AFF300802046BDE86B
:101120001040FFF766B8002801D000F069B870479A
:1011300010B5012805D0002103A000F0D9F8012046
:1011400010BD09A1F8E7000053494752544D454DE1
:101150003A204F7574206F662068656170206D6558
:101160006D6F7279000000003A2048656170206D53
:10117000656D6F727920636F72727570746564004B
:101180004FF0013C50F8042B51F8043B9A4221D116
:10119000A2EB0C03934313EACC1317D150F8042BA2
:1011A00051F8043B9A4215D1A2EB0C03934313EA86
:1011B000CC130BD150F8042B51F8043B9A4209D1BF
:1011C000A2EB0C03934313EACC13DBD04FF00000E7
:1011D000704700BFD01A01BAB1FA81F101F01801CD
:1011E00022FA01F0CB40C1F12001DBB2C0B2C01A3B
:1011F0002CFA01F3D11A914311EAC311E6D17047D9
:1012000001491820ABBEFEE7260002002DE9F04799
:10121000814616468AB0354878440DC88DE80D00E1
:1012200032487844801C03AC0DC884E80D0041F6B8
:101230009B300844372190FBF1F290FBF1F5A5F1CA
:10124000800501FB12041B3C02D56442012000E032
:101250000020DFF898A080460027FA44AAF1BE0AD1
:101260000EE0E0070AD03246684607EB470101234B
:101270000AEB810100F010FD8DE8070064107F1C6F
:10128000002CEED1194F7F44AE3F19E0E80715D08E
:1012900007EB04100DF1180A90E80E008AE80E0022
:1012A000C068F04201D1981908903246012306A97E
:1012B00003A800F0F1FC03AB83E807006D10641C89
:1012C000002DE3D14FF0010332466946B8F1000F1B
:1012D00003A802D000F0B6FC01E000F0DDFCC9E993
:1012E0000001C9F808200AB0BDE8F087343E0000CC
:1012F00070B505460C460A2000E06D1C00F011F8A0
:1013000035B128780028F8D102E0641C00F009F813
:1013100014B120780028F8D1BDE870400A20AFF35E
:10132000008008B569468DF800000320ABBE08BDFB
:101330002DE9FF4F1F464FF03C0987B04FF00042A8
:10134000DDE9141001F10108DDF858A002EA40506F
:101350000390002005908346054604460490B96931
:10136000461E08988847AAF1010A0290BAF1000FB8
:101370003BDD02982E2815D01021FFF7E8FB00284E
:101380002EDB4FF0010B0599014317D0B9F1000F87
:101390000BDB4A46C11700F0F5F905430C43A9F1F0
:1013A000040905E0012004900BE008B145F00105B7
:1013B00001200590049820B9361D02E0049800B180
:1013C000361FB969089808F101088847BBF1000F7A
:1013D000AAF1010A0290C9D00999C1F80080C5E7B5
:1013E0000298702808D0502806D0F96908988847D4
:1013F000BBF1000F14D04FE0002002900120BBF1A0
:10140000000F049009D0B969089808F101088847CD
:10141000AAF10109B9F1000F07DCF96908988847BA
:101420006FF001000BB0BDE8F08F2B2804D02D2801
:101430000CD14FF0FF300490B969089808F1010809
:101440008847A9F10109B9F1000FE6DD411CE4D09C
:101450000A21FFF77CFB0028DFDB029908F1010875
:1014600001EB810100EB41000290B96908988847BF
:101470000A21FFF76CFB099AA9F10109B9F1000FE4
:10148000C2F8008001DD0028E7DAF969089888478A
:101490000499029800FB016655EA040004D004F0A8
:1014A0004041090002D006E0039898E0A40044EA15
:1014B0009574AD00B61E04F00041080002D16D190C
:1014C0006441761E159810F0240F03D04FF00B09DD
:1014D0005C4803E04FF028096FF07D0082465645D6
:1014E00007DAAAEB06018944B9F1410F01DD4FF09B
:1014F000410901200021A9F1010200F043F902464F
:1015000028400B462140084301D0012100E0002182
:10151000501E029143F1FF3128402140084301D081
:10152000012000E000200299834651EA0B014FD0D0
:10153000002108464FF00000039900F4400039B143
:1015400000EB80004FF4400100EBD07001EA600036
:101550008015012802DD4FF0FF3000E013D0401C61
:1015600036D0029860B3BBF1000F0CD14A4601207F
:10157000002100F007F928402140084301D0012054
:1015800000E00020E0B101204A46002100F0FAF816
:10159000034640190A4661412D1A8C4111D3B9F115
:1015A000400F09DD159810F0240F02D0AAF134067F
:1015B00003E0AAF1170600E0761C00254FF0004476
:1015C00006E05B1E42F1FF3220EA030521EA020435
:1015D000CAF10100B04206DA1B49039808430190A2
:1015E000002000900EE0039AC4F3D321E80A0A43D6
:1015F000164940EA44500A433146CDE900026846A4
:1016000002F0E2FC159810F0240F0BD01598C007DB
:1016100015D13868DDE90012031D3B600068C0E9A0
:1016200000120CE002A8694602F068FC1598C00799
:1016300005D13868029A011D396000680260404691
:10164000F0E6000002FCFFFF0000F07F0000F03F2A
:101650002DE9FF4F92461D4685B04FF00041DDE970
:10166000124BDDE914727F1E01EA4B50414940F0F4
:10167000FF4940EA0108002122F020004928049196
:1016800002D04E2828D04CE03BA0012607C88DE8A8
:101690000700A9690698641C88477F1E014606D486
:1016A0001DF8060018B121F0200181420BD0E96934
:1016B00006988847032E34D0082E32D06FF00100F0
:1016C00009B0BDE8F08F761C032E01D0082EE0D1C2
:1016D000601CCAF80000DCE7A9690698641C88470A
:1016E0007F1E2AD420F02000412826D1A96906981F
:1016F000641C88477F1E20D420F020004E281CD177
:10170000A9690698641C88477F1E48F4002849F49C
:101710008009CAF8004001D4282806D0E969069853
:1017200088475FEACB7012D022E0A9690698641C52
:1017300088477F1E01D4002803DAE96906988847A4
:10174000BCE72928F1D1641CCAF80040E9E71BF086
:10175000240F07D028680499031D2B600068C0E996
:10176000001805E02868021D2A600068C0F8009093
:101770002046A5E70000F07F494E46494E4954599E
:1017800000000000B2F120030AD5C2F1200301FAE3
:1017900002F120FA03F300FA02F041EA0301704774
:1017A00000FA03F14FF00000704720F07F4C80EA10
:1017B000030023F07F47ACEB070303F57C5300F0F5
:1017C000004003F1FF032DE980494FEA154B09B4AE
:1017D0004FEA144325EA0B4E24EA03480FF204268D
:1017E00006EB132749083E785FEA320203FB0667DF
:1017F000C7F5000707FB06F64FEA54374FEAD6460F
:1018000006F1020607FB066CCCF1005C4FEA1C47B0
:101810002CEA074C07FB06F40CFB06F504EB154617
:101820004FEA961634BF00204FF000404FEAD13700
:1018300006FB07FC4FEA1C4C0CFB0BF7D21B03FB0F
:101840000CF761EB07010CFB0EF7B0EB074072EBF6
:1018500017420CFB08F734BFA2EB0742B2EB07427A
:1018600061EB17414FEA0C444FEA910706FB07FC76
:101870004FEA1C4C0CFB0BF7B0EBC74072EB573236
:1018800003FB0CF734BFA2EBC742B2EBC74261EBDC
:1018900057310CFB0EF7B0EBC70072EB57720CFB25
:1018A00008F734BFA2EBC702B2EBC70261EB577176
:1018B000039F4FEA816141EA921104EBCC044FEAA5
:1018C000D1374FEA826206FB07FC42EA90124FEAE8
:1018D00080604FEA1C4C0CFB0BF7D21B03FB0CF790
:1018E00061EB07010CFB0EF7B0EB074072EB174200
:1018F0000CFB08F734BFA2EB0742B2EB074261EBE7
:1019000017414FEA8C554FEA910704EB9C2406FBE4
:1019100007FC4FEA1C4C0CFB0BF7B0EBC74072EB1B
:10192000573203FB0CF734BFA2EBC742B2EBC742FE
:1019300061EB57310CFB0EF7B0EBC70072EB57723F
:101940000CFB08F734BFA2EBC702B2EBC70261EB96
:10195000577115EB4C254FEA816141EA92114FEA2C
:1019600082624FEAD13742EA901206FB07FC44F14B
:1019700000044FEA80604FEA1C4C0CFB0BF7D21BB3
:1019800003FB0CF761EB07010CFB0EF7B0EB074014
:1019900072EB17420CFB08F734BFA2EB0742B2EB25
:1019A000074261EB174115EB1C154FEA813141EA03
:1019B00092414FEA823242EA90424FEA80304FEA47
:1019C0000C7644F1000448EA03434EEA0B484FF01A
:1019D000000EB2EB080C71EB030724BF62463946D8
:1019E0004EEB0E0E4FF0000B0018524149414BEBED
:1019F0000B0BB2EB080C71EB03077BF1000B24BF60
:101A0000624639464EEB0E0E4FF0000B0018524165
:101A100049414BEB0B0BB2EB080C71EB03077BF16D
:101A2000000B24BF624639464EEB0E0E51EA020708
:101A300018BF46F0010616EB0E7655F1000254F180
:101A4000000103D5BDE88901BDE80088BDE8890132
:101A5000BDE80048B619524141EB0101A3F1010371
:101A6000704780807F7E7D7C7B7A7978777676750B
:101A70007473727171706F6E6E6D6C6C6B6A6A6983
:101A80006868676666656464636362616160605F1D
:101A90005F5E5E5D5D5C5C5B5B5A5A595958585796
:101AA00057565655555554545353525252515150FE
:101AB00050504F4F4F4E4E4D4D4D4C4C4C4B4B4B51
:101AC0004A4A4A4949494848484747474746464697
:101AD00045454544444444434343434242424241D2
:101AE0004141000046EA0646A3F570534FEA164608
:101AF00046EA42564FEAD22242EA415210B54FEA34
:101B0000D121A3F1010300F02FF820F0004000F1F3
:101B1000020C00F0004701EB00501146BCF5006FCD
:101B200040EA070000D210BDBAF1000F0AD01CB580
:101B300003B44FF004004FF004014FF000000FBC5D
:101B4000BDE810404FF00001BBF1010FB9BF0448E0
:101B50004FF0FF310348002140EA070010BD00BFED
:101B6000FFFFEF7F0000F07F002B9C4630D4770012
:101B70002BD01CB54FEA370703B44FF010004FF0DD
:101B80001001BAF1000F06D0BCF1000FDCBF40F02D
:101B9000080040F008014FF000000FBCBDE8104005
:101BA0000BF1010BBBF1010F08BF5FEA170722BF62
:101BB00012F1010211F101014FF0004143F1000364
:101BC00000F0004043EA00007047F9D35708D0E71F
:101BD00046EA064613F1400F4FEA16461FDD13F1A1
:101BE000200FDFBF16430A46002120335B42BED0E0
:101BF000C3F1200746EA064602FA07F74FEA1646FF
:101C000046EA0706C3F1200722FA03F201FA07F7B2
:101C100021FA03F14FF0000342EA0702A7E746EA80
:101C2000020646EA06464FEA164646EA0106BCBFE9
:101C300046EA0646360C4FF000034FF000024FF024
:101C4000000194E72DE9804C9A46934670B491E8E0
:101C5000380007C831EA400C48BF34EA430C03D5CA
:101C6000FFF7A3FDFFF780FFF0BCBDE8008C2DE976
:101C7000804C9A46934670B491E8380007C831EA20
:101C8000400C48BF34EA430C03D5FFF78EFDFFF745
:101C900029FFF0BCBDE8008C2DE9804C9A469346A4
:101CA00070B491E8380007C810F0804F08BF13F0F7
:101CB000804F03D100F01AF8FFF756FFF0BCBDE8E3
:101CC000008C2DE9804C9A46934670B491E8380018
:101CD00007C810F0804F08BF13F0804F03D100F009
:101CE00005F8FFF7FFFEF0BCBDE8008C20F07F4751
:101CF00080EA030023F07F4C07EB0C03A3F57C5331
:101D000000F00040A3F1FE0392F0000F00F0B3805A
:101D100095F0000F00F077802DE901494FEA11405E
:101D20004FEA144621EA004800FB06FC24EA064775
:101D300008FB06F607FB08F800FB07F718EB064858
:101D40004CEB164C4FEA124B18EB07484FEA15467E
:101D50004CEB174022EA0B4E0BFB06FC25EA06472C
:101D60000EFB06F607FB0EFE0BFB07F71EEB064EFF
:101D70004CEB164C4FF000061EEB074E4CEB174B8E
:101D800018EB0B0840F1000018EB0E0B58EB0008A5
:101D900040F100008F1A4FF000013CBFC943661BA1
:101DA00014BFB5EB040C00213CBFC943F61B4FEA3E
:101DB00017444EEA8E0E27EA04454FEA1C4704FBFF
:101DC00007622CEA074C05FB07F70CFB05F604FB42
:101DD0000CFC16EB074642EB174216EB0C4642EBA7
:101DE0001C421BEB060658EB0202414146EA9E06E6
:101DF00001D5BDE80189B619524141EB0101A3F1BA
:101E00000103BDE801894FEA14454FEA114724EA6E
:101E1000054621EA074C05FB07F406FB07F70CFB18
:101E200006F105FB0CFC11EB074144EB17444FEAAC
:101E3000124711EB0C4144EB1C4422EA074C05FB12
:101E400007F206FB07F70CFB06F605FB0CFC16EB8E
:101E5000074642EB174216EB0C4642EB1C456A184C
:101E600054F1000148BF7047B619524141EB0101DE
:101E7000A3F10103704795F0000F37D04FEA1142EC
:101E80004FEA144721EA024624EA074C02FB07F115
:101E900006FB07F70CFB06F402FB0CFC14EB0744F3
:101EA00041EB17414FEA154714EB0C4441EB1C4141
:101EB00025EA074C02FB07F506FB07F70CFB06F6C5
:101EC00002FB0CFC16EB074645EB174516EB0C46E0
:101ED00045EB1C42121951F1000148BF7047B61979
:101EE000524141EB0101A3F1010370474FEA144550
:101EF0004FEA114724EA054621EA074C05FB07F1A2
:101F000006FB07F70CFB06F24FF0000605FB0CFC86
:101F100012EB074241EB174112EB0C4251EB1C4113
:101F200048BF7047921841EB0101A3F101037047CC
:101F300000BFFEE710B502460B460020002104E07A
:101F4000545C0444E0B24C1CA1B29942F8DB10BDD1
:101F500010B502460B461078012103E0545C604046
:101F60004C1CA1B29942F9DB10BD000010B504462B
:101F700073480078012808D10020714908700120B9
:101F8000704908800020704908806F480088401C14
:101F90006D49088008460088012810D110216B483F
:101FA00000F0CAFE2021694800F0C6FE684821689A
:101FB000016061684160012066490870BFE06248C5
:101FC0000088022808D11021604800F0B3FE2021CB
:101FD0005E4800F0AFFEB2E05A4800880B287BD282
:101FE000DFE800F099061422313F4E5D6C7B8A00D9
:101FF00055480088B0F57A7F07D152480088401CC8
:102000005049088000205049088097E04E480088D9
:10201000B0F5FA6F07D14B480088401C4949088049
:1020200000204949088089E04748008840F6B831D7
:10203000884207D143480088401C4249088000205C
:10204000414908807AE040480088B0F57A6F07D1AE
:102050003C480088401C3B49088000203A490880E1
:102060006CE03948008841F28831884207D1354810
:102070000088401C334908800020334908805DE017
:102080003148008841F27071884207D12D4800889C
:10209000401C2C49088000202B4908804EE02A482B
:1020A000008841F65831884207D126480088401CF4
:1020B000244908800020244908803FE02248008805
:1020C000B0F5FA5F07D11F480088401C1D49088001
:1020D00000201D49088031E01DE01B48008842F2C5
:1020E0002831884207D117480088401C15490880CC
:1020F00000201549088021E01348008842F2107141
:10210000884207D10F480088401C0E4908800020F3
:102110000D49088012E00C4800880F490988884260
:102120000BD108480088642804DA06480088401C5F
:102130000449088000200449088000BF00BF10BD8A
:10214000C5000020160100201801002000080140F1
:102150000C010020BE000020C600002010B504467F
:102160001A480088401C1949088008460088012840
:1021700011D11021164800F0DFFD2021144800F095
:10218000DBFD14482168016061684160012012494B
:102190000870002010BD0D480088022809D11021C8
:1021A0000B4800F0C7FD2021094800F0C3FD0020C6
:1021B000F0E70648008809490988884204D10020D0
:1021C000024908800120E5E70020E3E7180100202C
:1021D000000801400C010020BE000020C6000020C5
:1021E00010B504460C480078012802D0022810D10E
:1021F00003E02046FFF7BAFE0CE00848007801280B
:1022000006D12046FFF7AAFF10B10020034908704D
:1022100000E000BF00BF10BDC3000020C4000020CC
:102220000020054908700549088064200449088099
:102230000020044908807047C500002014010020D8
:10224000160100201801002070B50024002642F27B
:102250000105FA222146641C434842544D2221467E
:10226000641C425443222146641C42545522214698
:10227000641C42540E222146641C42542A0A214600
:10228000641C42542146641C455438480278204658
:10229000611CCCB234490A54344842782146601C4F
:1022A000C4B231484254314882782046611CCCB2D5
:1022B0002D490A542D48C2782046611CCCB22A49C7
:1022C0000A542A4802792046611CCCB226490A5495
:1022D000264842792046611CCCB223490A5423483F
:1022E00082792046611CCCB21F490A541F48C0881D
:1022F000020A2046611CCCB21B490A541C480278D1
:102300002046611CCCB218490A5419480088020AB8
:102310002146601CC4B21448425400222046611C6D
:10232000CCB211490A542046611CCCB20E490A5461
:102330000F210D48001DFFF70BFE06462046611CCD
:10234000CCB209490E540A222046611CCCB206497F
:102350000A540D222046611CCCB203490A5422467D
:10236000044800F0ABF870BD100C00200C010020F8
:10237000140100201400002010B5074C00216069F2
:1023800000F028F9A06900F017F9202000F006F904
:10239000204600F0D2F810BD4C00002010B5084CCB
:1023A0000021606900F016F9A06900F005F94FF40A
:1023B000005000F0F3F8204600F0BFF810BD000018
:1023C0001400002010B5084C0021606900F002F9EB
:1023D000A06900F0F1F84FF4001000F0DFF820469B
:1023E00000F0ABF810BD0000300000202DE9F041F6
:1023F00004468846164600270025E579002D02DCB4
:102400000020BDE8F081B54200DD354600270EE032
:10241000A179481CA071A068405C08F80700A07969
:102420002188884201DB0020A071781C87B2AF426E
:10243000EEDB002240F22441206901F062FCE079E9
:10244000401BE071E079002801DC002020710122AE
:1024500040F22441206901F054FC2846D1E770B5D0
:10246000044600250026606900F066F9A178081A84
:10247000C5B2002D1DDD00BF0EE0E068815D627910
:10248000501C6071A068815460792188884201DB0A
:1024900000206071701CC6B2AE42EEDBE0792844C9
:1024A000E071E0792188884201DD2078E071012027
:1024B00020716188606900F06AF970BD2DE9F04112
:1024C00004460F4615460026002D01DCBDE8F081CC
:1024D000606900B9FAE700260DE0B95D6279501C29
:1024E0006071A068815460792188884201DB0020F6
:1024F0006071701C86B2AE42EFDB0022022160697F
:1025000000F01EF9E07928442188884202DD207815
:10251000E07102E0E0792844E07101220221606963
:1025200000F00EF92079012800D1CFE701202071B9
:10253000204600F002F800BFC8E770B50446002648
:102540000025606900B970BDE5796088A84200DAAD
:102550006588002D1EDD00260EE0A179481CA071C3
:10256000A068405CE1688855A0792188884201DB39
:102570000020A071701C86B2AE42EEDBE079401BF9
:10258000E0712946606900F002F90121606900F0FC
:1025900021F801E00020207100BFD4E700F0805155
:1025A00011B10349086001E002494860704700002A
:1025B000040402400000024000F0805111B10349C0
:1025C000086001E0024948607047000004040240CE
:1025D0000000024021B1026842F00102026004E002
:1025E00002684FF6FE731A400260704701684FF6AA
:1025F000FE72114001600021016041608160C16094
:102600004B49884208D14A490839496841F00F01CD
:10261000474A083A51608AE045491431884208D156
:1026200043490839496841F0F001414A083A51608C
:102630007DE03F492831884208D13D490839496841
:1026400041F470613A4A083A516070E038493C31CF
:10265000884208D136490839496841F47041344A02
:10266000083A516063E032495031884208D130491C
:102670000839496841F470212D4A083A516056E002
:102680002B496431884208D129490839496841F405
:102690007001274A083A516049E02549783188425B
:1026A00008D123490839496841F07061204A083A45
:1026B00051603CE01F49884206D1011F096841F082
:1026C0000F01021F116032E01A491431884208D10B
:1026D0001849091F096841F0F001164A121F1160DC
:1026E00025E014492831884208D11249091F096898
:1026F00041F470610F4A121F116018E00D493C311E
:10270000884208D10B49091F096841F47041094A00
:10271000121F11600BE007495031884207D105496B
:10272000091F096841F47021024A121F11607047A5
:1027300008000240080402400146486880B2704721
:102740001AB103680B43036002E003688B43036024
:10275000704710B50022026847F6F0739A430C6A7E
:102760008B6823430C6923434C6923438C692343BF
:10277000CC6923434C6A23438C6A23431A43026087
:10278000CB6843600B6883604B68C36010BD4160D9
:102790007047000000B58BB00121084600F02CFD09
:1027A0001148FFF723FF114800901148C0680190BD
:1027B000002002900E484088039000200490802062
:1027C000059000200690079020200890C0010990F5
:1027D00000200A9069460448FFF7BBFF0121024828
:1027E000FFF7F8FE0BB000BD58000240043801406E
:1027F0006800002000B58DB00121084600F0FCFC07
:102800001B48FFF7F3FE1B4802901B48C06803906B
:1028100010200490184840880590002006908020E1
:1028200007900020089009900A904FF480500B9078
:1028300000200C9002A90E48FFF78BFF0E208DF8A8
:10284000040000208DF8050003208DF8060001200B
:102850008DF8070001A800F017FB012202210448AF
:10286000FFF76EFF00210248FFF7B4FE0DB000BD78
:1028700044000240043801401400002000B58BB031
:102880000121084600F0B8FC1148FFF7AFFE1148DF
:1028900000901148C0680190002002900E484088C6
:1028A000039000200490802005900020069007905F
:1028B00020200890C001099000200A906946044831
:1028C000FFF747FF01210248FFF784FE0BB000BD70
:1028D00080000240044400408400002000B58DB018
:1028E0000121084600F088FC1B48FFF77FFE1B48CB
:1028F00002901B48C068039010200490184840883C
:1029000005900020069080200790002008900990F4
:102910000A904FF480500B9000200C9002A90E48B2
:10292000FFF717FF10208DF8040000208DF8050038
:1029300003208DF8060001208DF8070001A800F0A3
:10294000A3FA012202210448FFF7FAFE00210248FF
:10295000FFF740FE0DB000BD6C0002400444004093
:102960003000002000B58BB00121084600F044FC87
:102970001148FFF73BFE114800901148C0680190D4
:10298000002002900E484088039000200490802090
:10299000059000200690079020200890C001099023
:1029A00000200A9069460448FFF7D3FE012102483F
:1029B000FFF710FE0BB000BD30000240044800409D
:1029C000A000002000B58DB00121084600F014FCE5
:1029D0001B48FFF70BFE1B4802901B48C068039082
:1029E0001020049018484088059000200690802010
:1029F00007900020089009900A904FF480500B90A7
:102A000000200C9002A90E48FFF7A3FE0C208DF8C1
:102A1000040000208DF8050003208DF80600012039
:102A20008DF8070001A800F02FFA012202210448C6
:102A3000FFF786FE00210248FFF7CCFD0DB000BD78
:102A40001C000240044800404C0000207047000079
:102A500010B5022000F012F830B100F03DF802206D
:102A60000249086000F004F810BD000014040140A1
:102A7000014908607047000014040140014600202D
:102A80000022074B1B6803EA0102054B14331B6845
:102A90000B4013B10AB1012000E000207047000094
:102AA000000401400549096821F01001034A116042
:102AB0001146096801431160704700000020024080
:102AC00001460020034A106800F0380008431060F7
:102AD000704700000020024010B50221134800F0AA
:102AE00020F900B910BD124801F03CFF72B601F0A8
:102AF00053FF62B60F48008840F22621884200DC6E
:102B0000F0E700200B49088001200B4908700B48B2
:102B100000680B49086000200A4908800A480078CC
:102B200040F001000849087000BFDBE7000C0140DD
:102B3000EC000020E0000020E2000020E400002083
:102B4000E8000020F4000020C200002008B54FF487
:102B5000E06000F0D1F90121042000F06DFB0121BB
:102B6000082000F069FB4FF4C060ADF800001820A9
:102B70008DF8030003208DF802006946214800F01B
:102B800045F80C20ADF8000018208DF80300032054
:102B90008DF8020069461B4800F038F84FF4406099
:102BA000ADF8000018208DF8030003208DF8020016
:102BB0006946154800F02AF80220ADF8000004200C
:102BC0008DF803006946104800F020F81020ADF899
:102BD000000018208DF8030003208DF802006946DC
:102BE000084800F013F82020ADF8000018208DF8F8
:102BF000030003208DF802006946024800F006F841
:102C000008BD000000080140000C01402DE9F04122
:102C1000024600250026002000230024002791F80A
:102C200003C00CF00F0591F803C00CF0100CBCF1C0
:102C3000000F03D091F802C04CEA050591F800C0DE
:102C4000BCF1000F31D0146800202BE04FF0010CD4
:102C50000CFA00F3B1F800C00CEA03069E4220D142
:102C600083004FF00F0C0CFA03F7BC4305FA03FC8A
:102C70004CEA040491F803C0BCF1280F06D14FF0D0
:102C8000010C0CFA00FCC2F814C00AE091F803C071
:102C9000BCF1480F05D14FF0010C0CFA00FCC2F852
:102CA00010C0401C0828D1D31460B1F800C0BCF19A
:102CB000FF0F34DD546800202EE000F1080C4FF0C7
:102CC000010808FA0CF3B1F800C00CEA03069E42B2
:102CD00021D183004FF00F0C0CFA03F7BC4305FA27
:102CE00003FC4CEA040491F803C0BCF1280F05D1A1
:102CF00000F1080C08FA0CF8C2F8148091F803C02F
:102D0000BCF1480F07D100F1080C4FF0010808FA98
:102D10000CF8C2F81080401C0828CED35460BDE8DF
:102D2000F0810246002093680B400BB1012000E0C7
:102D300000207047416170470161704770B588B0ED
:102D40000024002506A801F00DFE9DF818009DF84E
:102D500019109DF81A209DF81D30CDE90132CDE9FA
:102D600003109DF81C0000909DF81B30194A642147
:102D70001948FDF7BBFA1848FDF769FC86B23146E1
:102D8000154801F039FA04469DF818109DF819000D
:102D90009DF81A2003AB13C302929DF81D009DF805
:102DA0001C10CDE900109DF81B300C4A64210A4824
:102DB000FDF79CFA0848FDF74AFCC5B22A460649C9
:102DC0000748FFF77BFB2A460349054801F033F823
:102DD00008B070BDC8500008D6090020685000082F
:102DE0003000002000BFFEE710B545F2555000F05E
:102DF00029F8062000F01AF84FF4FA7000F01CF8D9
:102E000000F00CF800F002F810BD00004CF6CC40C9
:102E10000149086070470000003000404AF6AA20CF
:102E200001490860704700000030004001494860D7
:102E30007047000000300040014988607047000082
:102E40000030004001490860704700000030004039
:102E500010B50948007838B920210848FFF76CFF01
:102E600001200549087006E020210448FFF762FFB1
:102E700000200149087010BDBF000020000801407B
:102E800000BFFEE77047000070B5002100230F224D
:102E9000C47804B3154C246804F4E064C4F5E06419
:102EA000210AC1F10403CA40447804FA03F184788A
:102EB0001440214309010E4C0678A155047804F012
:102EC0001F050124AC4005786D11AD0005F1E0252A
:102ED000C5F8004109E0047804F01F050124AC4066
:102EE000044D0678761145F8264070BD0CED00E0E3
:102EF00000E400E080E100E002490143024A116081
:102F0000704700000000FA050CED00E070B50446C3
:102F1000462600253F480078072878D2DFE800F0F1
:102F2000040A1A2A3A4B6500FA2C02D101203949C9
:102F300008706DE04D2C03D102203649087008E07E
:102F4000FA2C03D101203349087002E000203149F6
:102F500008705DE0432C03D103202E49087008E07F
:102F6000FA2C03D101202B49087002E000202949E6
:102F700008704DE0552C03D104202649087008E064
:102F8000FA2C03D101202349087002E000202149D6
:102F900008703DE020480470002020490870084671
:102FA00001780078401C1D4A10701D4844540520CB
:102FB000184908702CE0194801780078401C174A1D
:102FC0001070174844541046017813480078401C8C
:102FD000814202DB06200F49087010480078412822
:102FE00002DB00200B49087012E00C4801780C4805
:102FF000FEF7AEFF0546A54204D10848017808480F
:1030000000F05CF800200349087001E0FFE700BF12
:1030100000BF70BDC8000020CA000020C900002009
:103020003A0A002070B50024002546F20206FA2272
:103030002146641C1E4842544D222146641C4254C1
:1030400043222146641C425455222146641C4254AA
:1030500003222146641C425460222146641C4254CF
:1030600002222146641C4254124802782046611C08
:10307000CCB20F490A5404210D48001DFEF768FF29
:1030800005462046611CCCB209490D540A2220464F
:10309000611CCCB206490A540D222046611CCCB2F8
:1030A00003490A5422460448FFF708FA70BD00009D
:1030B000BC0A0020C3000020140000202DE9FC41C0
:1030C00004460F4600260025A078617800EB012019
:1030D00086B245F20201701A8E424AD00ADC6FF4C1
:1030E0004050304480B1B0F5805F2DD0B0F5005F26
:1030F00061D12FE0012850D0A0F6FF70002844D005
:10310000B0F5005F57D144E02D480078C0B9E078B1
:103110008DF8000020798DF8010060798DF80200AB
:10312000A0798DF80300E0798DF80400207A8DF8FD
:10313000050072B6684601F01DFC01F02DFC62B678
:1031400001202049087037E000201E4908701E4900
:10315000087031E01B48007850B9E078012802D1AE
:103160001A49087004E0E078022801D11749087074
:1031700022E014480078012806D11448007802287B
:1031800002D101201049087016E001201049087092
:1031900012E001200F4908700EE0E078217900EB81
:1031A000012085B2642D03DA64200B49088001E018
:1031B0000948058000E000BF00BFBDE8FC810000B9
:1031C000C1000020C0000020C4000020C300002077
:1031D000BD000020C5000020C60000207047000090
:1031E00001460020034A506820F4404008435060E4
:1031F000704700000010024029B1064A526902439C
:10320000044B5A6104E0034A52698243014B5A61FC
:10321000704700000010024029B1064AD2690243FB
:10322000044BDA6104E0034AD2698243014BDA615C
:10323000704700000010024029B1064A926902431B
:10324000044B9A6104E0034A92698243014B9A61FC
:10325000704700000010024070B5002500F03AF8F9
:103260004FF4803000F0F8F800BF00F053F9044646
:10327000681C85B214B9B5F5A06FF6D1012C27D121
:103280001020FFF70FFC0220FFF71AFC002000F0CF
:10329000D7F8002000F012F9A00200F003F9E003D3
:1032A000FFF79EFF4FF4E011200400F019F9012010
:1032B00000F010F900BF392000F09CF80028FAD087
:1032C000022000F01BF900BF00F0B2F80828FBD183
:1032D00070BD00000F48006840F001000D49086013
:1032E000084640680C4908400A494860084600689A
:1032F0000A490840074908600846006820F4802011
:1033000008600846406820F4FE0048604FF41F0043
:1033100088607047001002400000FFF8FFFFF6FED3
:1033200030B500210022002400232D4D6D6805F0EA
:103330000C0121B1042905D0082923D105E0294D2C
:10334000056022E0274D05601FE0254D6D6805F4FE
:103350007012234D6D6805F48034022505EB92420E
:103360001CB9214D554305600BE01D4D6D6805F4FA
:1033700000351DB11C4D5543056002E0194D554304
:10338000056002E0174D056000BF00BF144D6D6879
:1033900005F0F0010909154D6B5C0568DD404560DD
:1033A0000F4D6D6805F4E061090A104D6B5C4568CE
:1033B000DD4085600A4D6D6805F46051C90A0B4D0A
:1033C0006B5C4568DD40C560054D6D6805F44041A6
:1033D000890B074D6B5CC568B5FBF3F5056130BD26
:1033E0000010024000127A0000093D000000002099
:1033F0001000002010B501460022002300204A11D1
:10340000012A02D1094C236806E0022A02D1074CA6
:10341000236A01E0054C636A01F01F020124944015
:103420001C400CB1012000E0002010BD0010024043
:103430000248406800F00C00704700000010024095
:1034400001460020034A506820F0F0000843506015
:1034500070470000001002401149096821F48031D2
:103460000F4A11601146096821F480211160B0F5FE
:10347000803F03D0B0F5802F0ED106E008490968DF
:1034800041F48031064A116007E00549096841F4BA
:10349000A021034A116000E000BF00BF7047000098
:1034A0000010024001460020034A506820F4E0600A
:1034B00008435060704700000010024001460020A1
:1034C000034A506820F4605040EAC10050607047E1
:1034D00000100240014908667047000000004242A7
:1034E00002460020044B586820F47C1042EA010395
:1034F0001843014B586070470010024001460020FD
:10350000034A506820F003000843506070470000F1
:103510000010024038B5002000900024002500BFB4
:103520003120FFF767FF05460098401C0090009887
:10353000B0F5A06F01D0002DF2D03120FFF75AFF77
:1035400008B1012400E00024204638BD704710B5C2
:1035500000F002F810BD00000CB5002001900090B2
:103560003348006840F480303149086000BF30487B
:10357000006800F4003000900198401C0190009811
:1035800018B90198B0F5A06FF1D12948006800F48E
:10359000003010B10120009001E000200090009860
:1035A000012843D12348006840F0100021490860F9
:1035B0000846006820F0030008600846006840F0F4
:1035C000020008601A484068194948600846406887
:1035D00048600846406840F480604860084640689B
:1035E00020F47C1048600846406840F4E8104860C9
:1035F0000846006840F08070086000BF0C48006812
:1036000000F000700028F9D00948406820F003005D
:10361000074948600846406840F00200486000BF23
:103620000348406800F00C000828F9D10CBD0000E8
:103630000010024000200240704710B5FFF786FAE4
:1036400000F050F900F0E0F900F06EFA00F032F806
:1036500010BD000010B51348006840F0010011498A
:10366000086008464068104908400E49486008460E
:1036700000680E4908400B4908600846006820F4BD
:10368000802008600846406820F4FE0048604FF43F
:103690001F008860FFF75BFF4FF00060044908607F
:1036A00010BD0000001002400000FFF8FFFFF6FE12
:1036B00008ED00E01FB501210846FFF7ADFD40F21F
:1036C000E730ADF804004720ADF800000020ADF869
:1036D0000600ADF8020069464FF0804000F07EF829
:1036E00001224121880700F070F80121880700F0CD
:1036F00022F81C208DF80C0000208DF80D0004200D
:103700008DF80E0001208DF80F0003A8FFF7BCFB19
:103710001FBD10B50121880700F046F838B100F050
:10372000AFF8FFF77BFB0121880700F001F810BD1F
:10373000CA430282704721B1028842F0010202802E
:1037400004E002884FF6FE731A40028070470000C2
:10375000114800884FF6E851884204DA0E48008884
:10376000401C0D4908800D480068401C0B4908604A
:103770000B4800884EF66021884204DA0848008829
:10378000401C0749088006480088B0F5FA6F02DB44
:103790000020044908707047E0000020E400002089
:1037A000F4000020C200002030B5024600200023B3
:1037B0000024158A05EA0103958905EA010413B17D
:1037C0000CB1012000E0002030BD1AB183890B4309
:1037D000838102E083898B438381704700220288C2
:1037E0001D4B98420ED01D4B98420BD0B0F1804F2C
:1037F00008D01B4B984205D01A4B984202D01A4B66
:10380000984204D14FF68F731A404B881A43174BD6
:10381000984207D0164B984204D04FF6FF431A4007
:10382000CB881A4302808B8883850B8803850A4BDB
:1038300098420BD0094B984208D00E4B984205D0C5
:103840000D4B984202D00D4B984201D10B7A038662
:103850000123838270470000002C014000340140A6
:103860000004004000080040000C00400010004030
:103870000014004000400140004401400048014065
:103880001CB501F08FF81448007801281BD1684658
:1038900001F068F8BDF8060088B1BDF806000128FF
:1038A0000DD0BDF80600052803D101200B49087092
:1038B00005E0BDF806000A2801D1FFF7C9FA6846FD
:1038C000FEF78EFC05E020210548FFF733FAFEF7EE
:1038D000A7FCFFF73DFF1CBDC0000020BC0000207E
:1038E0000008014000B587B001210420FFF7A4FCC7
:1038F00001218803FFF7A0FC4FF40070ADF814001D
:1039000018208DF8170003208DF8160005A925480A
:10391000FFF77CF94FF48060ADF8140004208DF8B7
:10392000170005A91F48FFF771F94FF4E130019026
:103930000020ADF80800ADF80A00ADF80C00ADF8B5
:1039400010000C20ADF80E0001A9174800F0FEF998
:10395000012240F22441144800F0D3F90122402111
:10396000114800F08EF9012280210F4800F089F9FA
:1039700001210D4800F079F925208DF8180000206C
:103980008DF8190004208DF81A0001208DF81B0015
:1039900006A8FFF779FAFEF7FDFEFEF72BFF07B04A
:1039A00000BD0000000801400038014070B5144C13
:1039B0000821144800F06EF948B1124800F032FABC
:1039C000C5B200BF4FF458710E4800F03FF940F205
:1039D00024410C4800F06BF988B10A4800F022FA43
:1039E000C5B200216069FEF7F5FDA069FEF7D6FDBE
:1039F0002046FEF734FD01216069FEF7EBFD70BD46
:103A0000680000200038014000B587B00121042083
:103A1000FFF712FC01214804FFF7FEFB0420ADF87C
:103A2000140018208DF8170003208DF8160005A942
:103A30002448FFF7EBF80820ADF8140004208DF8B7
:103A4000170005A91F48FFF7E1F84FF41650019041
:103A50000020ADF80800ADF80A00ADF80C00ADF894
:103A600010000C20ADF80E0001A9174800F06EF907
:103A7000012240F22441144800F043F90122402180
:103A8000114800F0FEF8012280210F4800F0F9F8FB
:103A900001210D4800F0E9F826208DF818000020DB
:103AA0008DF8190004208DF81A0001208DF81B00F4
:103AB00006A8FFF7E9F9FEF7E1FEFEF70FFF07B0F2
:103AC00000BD0000000801400044004070B5144CE7
:103AD0000821144800F0DEF848B1124800F0A2F9BD
:103AE000C5B200BF4FF458710E4800F0AFF840F275
:103AF00024410C4800F0DBF888B10A4800F092F944
:103B0000C5B200216069FEF765FDA069FEF746FDBC
:103B10002046FEF7A4FC01216069FEF75BFD70BD45
:103B2000840000200044004000B587B00121082037
:103B3000FFF782FB01218804FFF76EFB4FF48060E2
:103B4000ADF8140018208DF8170003208DF816002A
:103B500005A92548FFF75AF84FF40060ADF81400A6
:103B600004208DF8170005A91F48FFF74FF84FF400
:103B7000E13001900020ADF80800ADF80A00ADF882
:103B80000C00ADF810000C20ADF80E0001A917488C
:103B900000F0DCF8012240F22441144800F0B1F8B2
:103BA00001224021114800F06CF8012280210F48C9
:103BB00000F067F801210D4800F057F827208DF834
:103BC000180000208DF8190004208DF81A0001203B
:103BD0008DF81B0006A8FFF757F9FEF7C3FEFEF7A6
:103BE000F1FE07B000BD0000000C0140004800409D
:103BF00070B5144C0821144800F04CF848B1124834
:103C000000F010F9C5B200BF4FF458710E4800F033
:103C10001DF840F224410C4800F049F888B10A48E8
:103C200000F000F9C5B200216069FEF7D3FCA0697D
:103C3000FEF7B4FC2046FEF712FC01216069FEF796
:103C4000C9FC70BDA00000200048004010B5002253
:103C5000002340F66A14A14200D100BF0A120124D9
:103C60009440A3B2DC43048010BD21B1828942F4A8
:103C70000052828104E082894DF6FF731A408281EE
:103C800070471AB1838A0B43838202E0838A8B4395
:103C90008382704702460020B1F5007F00D100BF4B
:103CA00013880B400BB1012000E00020704770B575
:103CB0000246002400230025002040F66A16B14287
:103CC00000D100BFC1F3421501F01F03012606FA1F
:103CD00003F3012D02D19689334006E0022D02D173
:103CE000168A334001E0968A33400C12012606FA08
:103CF00004F41688344013B10CB1012000E0002018
:103D000070BDF0B50346002400260025002040F6D3
:103D10006A17B94200D100BF1846C1F3421401F03E
:103D20001F06012707FA06F5012C01D10C3004E02B
:103D3000022C01D1103000E014301AB107682F4373
:103D4000076002E00768AF430760F0BD2DE9F04768
:103D500086B005460E460024A24600BFA1460027B5
:103D6000B08900B100BF2F462C8A4CF6FF7004408A
:103D7000F08804432C82AC894EF6F3100440B088DE
:103D800031890843718908430443AC81AC8A4FF6FA
:103D9000FF400440B0890443AC8201A8FFF7C0FA99
:103DA0001F48874202D1DDF810A001E0DDF80CA029
:103DB000A88900F4004040B10AEBCA0000EB0A10E9
:103DC00031684900B0FBF1F807E00AEBCA0000EBEC
:103DD0000A1031688900B0FBF1F86420B8FBF0F0FC
:103DE00004012009642101FB1089A88900F4004026
:103DF00040B1322000EBC900B0FBF1F000F0070049
:103E0000044308E0322000EB09106421B0FBF1F01C
:103E100000F00F0004432C8106B0BDE8F0870000DD
:103E20000038014001468888C0F308007047C1F39C
:103E30000802828070472DE9F04104460F4615467E
:103E40000026B046002D01DCBDE8F081206900B9F4
:103E5000FAE700260DE0B95D6279501C6071A06838
:103E6000815460792188884201DB00206071701CD8
:103E700086B2AE42EFDB002240F226612069FFF7F6
:103E800040FF94F80780E07928442188884202DDC9
:103E90002078E07102E0E0792844E071B8F1000F89
:103EA00010DCA3795A1CA271A268D15C2069FFF7CB
:103EB000BEFFA0792188884201DB0020A071E07953
:103EC000401EE07101202071012240F2266120692C
:103ED000FFF717FF00BFB7E700BFFEE740F2013270
:103EE00000204FF0E04101F00CB80000024A002031
:103EF000110701F006B8000001FDFFFF10B50446F0
:103F0000D1E9000100F002F8206010BDF8B50446C8
:103F10000D466A4600F06AF800987E30009000284E
:103F20001EDC002213462046294600F0FDFD17D076
:103F3000002140F608004FF00000064620462946C2
:103F400000F0ACFD044640F6080006EA00014FF020
:103F5000000034F0004004BF0220FCF758FE29E0C6
:103F60000098FF2828DB002108464FF0000000F4ED
:103F70004006002213462046294600F0E1FE8CBF91
:103F8000002501250220FCF742FE4FF0FF4446B118
:103F9000002D0CBF4FF400004FF48000B04218BF5A
:103FA000084C042108464FF00000002D04BF84F0A7
:103FB0000040F8BD2046F8BD20462946BDE8F8403F
:103FC00000F06CBDFFFF7F7F10B504460A46D4E9C0
:103FD0000003194600F01EF9C4E9000110BD303895
:103FE0000A2801D2012070470020704710B51446FE
:103FF00000222260114A21F000439342A8BF10BD65
:1040000053EA000208BF10BDB3F5801FA8BF2268A5
:1040100007DA362200F075FF6FF0350221F0004319
:104020002260DFF81CC06FF31E510CEB23531A44BF
:1040300041F0FF5141F00051226010BD0000F07FBF
:1040400002FCFFFF1EB502460EA419CC8DE8190034
:10405000D31702EB93739B10A2EB83030BB90123DD
:1040600000E000232BB1022903D11D20084B18705A
:1040700004E0481E1DF80000054B18700448007845
:104080001EBD00001F1C1F1E1F1E1F1F1E1F1E1FE8
:10409000DC0000202DE9F043AFB00746884600253C
:1040A000642101A8FCF724FB01A800904146FCF71D
:1040B000AAFA50A1684600F025FC04468CE00F2DBA
:1040C0007DD2DFE805F080080D14181F232C35423F
:1040D000804C80565F0021461AA8FCF794FA73E0E2
:1040E0000021204600F026FCCDE91E016CE020787E
:1040F0008DF8800068E00021204600F01BFCCDE92F
:10410000220161E020788DF890005DE00A22002114
:104110002046FCF731FAC0B28DF8910054E00A2233
:1041200000212046FCF728FAC0B28DF892004BE03F
:104130000A2200212046FCF71FFA00F0FF0948463A
:1041400000F05BFDCDE926013EE00021204600F0B5
:10415000FFFB814600F02AFECDE9280134E0002172
:10416000204600F0F5FB814600F020FECDE92A0153
:104170002AE00A2200212046FCF7FEF9C0B28DF8A1
:10418000B00021E00420FCF75BF806462046FCF76F
:104190005EFAA0F103094A4621463046FCF7CFFA01
:1041A0002046FCF754FAC01E002131540A22304642
:1041B000FCF7E2F980B2ADF8B200304600E002E070
:1041C000FCF76DF800E000BF00BF0AA1684600F0F0
:1041D00099FB0446681CC5B2002C7FF470AF01A89F
:1041E000FCF75DF850221AA93846FCF74FFA2FB0B9
:1041F000BDE8F0832C00000010B502460B460021FC
:10420000002000BF03E0545C60404C1CA1B2994206
:10421000F9DB10BD2DE9F04106460C4640F2FF7572
:10422000174635EA14502BD000221346304600F0D2
:104230007BFC25D03A463046214600F062FE064619
:104240000C4635EA145010D000221346304600F0D8
:104250006BFC15D10220FCF7DAFCFFF747FE0A469B
:10426000214662F31E01BDE8F0810220FCF7CFFC7D
:10427000FFF734FE0A46214662F31E01BDE8F081D5
:1042800030462146BDE8F081002400BF00E0641CF8
:1042900017488442FBD3FEF7DFFFFFF7CEF9FEF7A6
:1042A000A3FD24E013480079012801D100F04CF867
:1042B00011480079012801D100F026F80F48007854
:1042C00020B1FDF7C1FF00200C4908700C480078B0
:1042D00020B1FEF7A7FE00200949087009480078C0
:1042E00020B1FEF72BFD00200649087030BFD9E74A
:1042F000404B4C006800002084000020BE000020DD
:10430000BD000020BC00002070B5002464260025FC
:1043100064220A490A48FEF769F805460948007808
:10432000012809D100BF05E00449085D00F026F826
:10433000601C84B2AC42F7DB70BD0000AC0B002007
:1043400084000020C000002070B500243C26002519
:104350003C2208490848FEF749F8054600BF05E039
:104360000449085DFEF7D2FD601C84B2AC42F7DB65
:1043700070BD0000800A0020680000202DE9F04197
:1043800096B00446002500260027FE48007848B96C
:104390000020FD490870FD490870FD49087016B0FD
:1043A000BDE8F081F8480078052868D006DC0528CB
:1043B0007ED2DFE800F00C12223E5400062878D0AE
:1043C000642877D0652876D0662871D13BE1242C0B
:1043D00002D10120EC49087057E1472C03D102209B
:1043E000E949087008E0242C03D10120E64908704F
:1043F00002E00020E449087047E1502C06D1032078
:10440000E14908700120E349087011E04E2C06D103
:104410000320DD4908700220DE49087008E0242CE2
:1044200003D10120D849087002E00020D649087065
:104430002BE1472C03D10420D34908700EE05A2CFD
:1044400003D16420D049087008E0242C03D1012056
:10445000CD49087002E00020CB49087015E1472CD7
:1044600003D10520C849087008E0242C03D101209D
:10447000C549087002E00020C349087005E1412CDD
:1044800050D1C5480068C54908600020BF49087080
:104490000620BD4908700020C14908702422084642
:1044A00001780078401CBE4B1870BE48006803E0DD
:1044B000EAE0A5E040E04FE0425447221846017888
:1044C0000078401C1870B74800684254B148007822
:1044D000022801D14E2100E05021B1480278007835
:1044E000401CAF4B1870AF480068815447221846F3
:1044F00001780078401C1870AA480068425447218F
:10450000184602780078401C1870A648006881544C
:104510004121184602780078401C1870A1480068B4
:10452000815408E0242C03D101209749087002E04F
:10453000002095490870A8E0442C03D165209249D9
:10454000087008E0242C03D101208F49087002E094
:1045500000208D49087098E0412C47D100208C49FB
:10456000087066208849087000208F49087024224E
:10457000084601780078401C8B4B18708B48006807
:1045800042544722184601780078401C187087482A
:10459000006842547F480078022801D14E2100E093
:1045A0005021814802780078401C7F4B18707F486A
:1045B000006881545A22184601780078401C18700F
:1045C0007A48006842544422184601780078401C1A
:1045D00018707648006842544121184602780078E5
:1045E000401C187071480068815408E0242C03D1E5
:1045F00001206549087002E000206349087044E02A
:10460000674801780078401C654A1070654800686A
:1046100044540A2C0FD110460078801E6149096865
:10462000085C0D2807D10020574908700120574920
:1046300008705F4908705A480078822802DD00201F
:104640005149087021E0584801780078401C564ACA
:1046500010705648006844540A2C0DD1104600785A
:10466000801E52490968085C0D2805D10020464982
:1046700008700120464908704B480078642802DD24
:1046800000204149087000E000BF00BF3F480078AB
:1046900001281CD146480078012818D14148D0F89B
:1046A0000080414602A8FFF7F5FC02A9684600F029
:1046B000EFF84048009901600199416072B63D48A9
:1046C00000F058F962B600203949087000BF3A4836
:1046D0000088B0F5617F77DA2C480078012873D123
:1046E0002B4800780128FAD1344800780128F6D107
:1046F0002A48006832490968884265D92D4800F087
:1047000031F900202D4908702049087020490870AF
:104710000025FA2229466D1C2A4842544D2229467A
:104720006D1C4254432229466D1C42545522294691
:104730006D1C42541A4800780A301B490978084415
:10474000C2B229466D1C1F484254302229466D1CB6
:104750004254012229466D1C4254164802782946CB
:104760006D1C184842541348427829466D1C154860
:1047700042541048827829466D1C124842540D4814
:10478000C27822E0C0000020F600002003010020D3
:104790000501002002010020E400002008010020A3
:1047A00000010020F800002001010020FC00002092
:1047B00004010020EC000020E0000020E2000020C6
:1047C000E8000020E40A002052E029466D1C294838
:1047D00042542948027929466D1C264842542648ED
:1047E000427929466D1C234842542348C08802124E
:1047F00029466D1C1F4842541F48827929466D1C6A
:104800001C4842541D480078284485B2002609E01F
:104810001B480068825D2846691C8DB215490A5400
:10482000701C86B2174800788642F1DB281F81B2DF
:104830001048001DFDF77EFB07462846691C8DB217
:104840000C490F540A222846691C8DB209490A54A2
:104850000D222846691C8DB206490A542A460A4888
:10486000FDF72CFE0948007840F002000749087067
:1048700000BF94E5E40A0020EC00002000010020C5
:10488000FC0000200101002014000020C2000020D4
:104890002DE9F04106460F46194800F063F8002163
:1048A000384600F047F804460D462046294600F0F9
:1048B00077F942F21071B0FBF1F01149C87020464F
:1048C000294600F06DF942F21071B0FBF1F201FBE4
:1048D00012006421B0FBF1F0094908712046294615
:1048E00000F05EF96421B0FBF1F201FB1200044913
:1048F000487108460168316040687060BDE8F08129
:10490000EC0000202DE9F04104460F46266826B150
:1049100039463046FBF768FE00E00020054615B931
:104920000020206003E000202870681C20603046D2
:10493000BDE8F08100B583B00A460021CDE9001141
:1049400001466846FCF774F8DDE9000103B000BDDC
:1049500008B50A460021009101466846FCF79CF81C
:10496000009808BD02490A680260496841607047C2
:10497000CC0000200178074A11704178517081788D
:104980009170C178D1700179117141795171C188EB
:10499000D1807047CC00002000200149C8807047BA
:1049A000CC00002000B52648C08840F2E73188429C
:1049B0003FDB00202249C88008464079401C4871EE
:1049C000084640793C2839DB0020487108460079C8
:1049D000401C0871084600793C282FDB0020087134
:1049E0000846C078401CC8700846C078182825DBE7
:1049F0000020C87008468078401C88700A465178AC
:104A00001078FFF71FFB0E498978884216DC0020DA
:104A10000B49887008464078401C4870084640782A
:104A20000C280BDB0020487008460078401C0870FA
:104A300004E00348C088401C0149C88000BD000054
:104A4000CC00002010B500290AD00878002807D033
:104A500005487844FCF794FB002801D0002010BDE5
:104A60000248784410BD0000FE060000F606000073
:104A700010B500290AD00878002807D005487844E6
:104A8000FCF77EFB002801D0002010BD02487844CE
:104A900010BD0000E2070000DA07000021F000422C
:104AA000A2F16052B2F5801F01F0004328BFD2F19D
:104AB0007F6C0BD95FEA001C43EAC20242EB5070E4
:104AC00018BF704728BF20F001007047B2F5801F63
:104AD000BCBF184670474FEA410C1CF5001F02D2BC
:104AE000084600F0D4B970B500F0D6F8000000898F
:104AF000FFF7F6BF4FF00040A0F5800070470000C0
:104B000002494FF0000000F0CAB900BF0000F87F72
:104B1000491058BFC1F140415B1058BFC3F1404339
:104B20008B42EFF30080704751EA030C17D41CF559
:104B3000801F58BFBCF5801F00F10680994218BF46
:104B4000704708BF9042704707D711F5801F58BFC4
:104B500013F5801F19D499427047894270471CF59C
:104B6000801F08D5BCF5801FF7D58B4218BF704752
:104B700008BF824270474FF4001C1CEB410F38BF46
:104B80001CEB430F01D28B42704770B500F084F8E4
:104B9000922449004FF000514FF08053FFF7B8BF07
:104BA0004FEA1153A3F58063D3F11E03A8BFD3F1DD
:104BB000200C08DB4FF0004242EAC12252EA505278
:104BC00032FA03F0704709420BD4102BC4BF002007
:104BD000704703F5787CBCF1FF3F05D04FF0FF3004
:104BE00070474FF00000704770B500F055F800BFF7
:104BF0004992248000207047F0E7B0FA80F310FA61
:104C000003F10AD0C3F11D0303F580634FEA41505D
:104C10004FEA035202EBD12170474FF0000070477A
:104C200051EA030C17D41CF5801F58BFBCF5801F38
:104C300000F10680994218BF704708BF9042704744
:104C400007D711F5801F58BF13F5801F19D499425B
:104C50007047894270471CF5801F08D5BCF5801F3E
:104C6000F7D58B4218BF704708BF824270474FF498
:104C7000001C1CEB410F38BF1CEB430F01D28B42D1
:104C8000704770B500F008F8922449004FF00051C9
:104C90004FF08053FFF73CBF0EF1020E2EF0030ED3
:104CA0005EF8046B364205D4012A43EB030515F583
:104CB000001F12D8012841EB010C1CF5001F0CD875
:104CC0000ED14FEAD17C15F5001F0CEB4C0C0CF10A
:104CD000020C08BF4CEBD37C04E04FF0080C01E061
:104CE0004FEAD37C0CEB4C0526FA05F606F00706D6
:104CF000B6F1040C06D20EEB860CBDE870404CF009
:104D0000010C6047DFE80CF0090B02024FF0004194
:104D10004FF00000A1F5002170BD19461046012892
:104D200051EB010418BFD4F5001484BF002001F03A
:104D3000004170BD0808A0F500114FEA310170472D
:104D400053EA010C17D41CF5801F58BFBCF5801F17
:104D500000F106808B4218BF704708BF824270473F
:104D600007D713F5801F58BF11F5801F19D48B4248
:104D700070479B4270471CF5801F08D5BCF5801F0B
:104D8000F7D5994218BF704708BF904270474FF45B
:104D9000001C1CEB430F38BF1CEB410F01D29942A2
:104DA00070470FB40CBC03BCFFF76BBF43004FEA66
:104DB000D30C4FEA3C0C43401FBF40070CF160513D
:104DC00013F0FE4F70471CF0006F03D100200CF071
:104DD000004170470CF0004343EA507010B540EAC0
:104DE000CC0000F00EF800BF000000924FEA000176
:104DF000FFF7A0BF4FF000414FF00000A1F50021E8
:104E000070470EF1020E2EF0030E5EF8044B2442A2
:104E100004D44FEA4102B2F17F4F11D84FEA400368
:104E2000B3F17F4F0CD80ED14FEAD07CB2F17F4F57
:104E30000CEB4C0C0CF1020C08BF4CEBD17C04E0E9
:104E40004FF0080C01E04FEAD17C0CEB4C0324FA44
:104E500003F404F00704B4F1040C06D20EEB840C46
:104E6000BDE810404CF0010C6047DFE80CF007088B
:104E700002024FF00040A0F5800010BD084642003D
:104E800018BFD2F1807288BF00F0004010BDFF2132
:104E900041EAD050C00570474FF0000070470CF059
:104EA0000F03092B08BF082000F05F800A2B0BD0EE
:104EB000082B18BF704708BF1CF0400F0AD04FF0F6
:104EC00000004FF0000170471CF0400F18BF4FF07A
:104ED000004070471CF0100F08D020F0704300F025
:104EE0007F4242EAD3014FEA4370704700F06040CE
:104EF00021F07F4242EA000201F07F4040EA7270F6
:104F000070474FF0FF0C4CF4E06C1CEA11531CBFCF
:104F10009CEA030C9445C2BFDA4201EB0251704790
:104F2000002B0DD0BCF1000F0FD0002A01F0004182
:104F3000A4BF41F0E04141F07F614FF000007047B5
:104F400001F000414FF00000704750EA01334FF08C
:104F50009B0C18BF4CF0806C7FF4D2AD7047FBF710
:104F600083BFFCF7E5B9FCF773BB1CF4801F11D0BD
:104F70001CF4E02F03D06FEACC31490070474FF0AA
:104F80004050EFF3008222F0704242EA000282F3C6
:104F9000008870474FF000007047303132333435AD
:104FA0003637383941424344454640305800303165
:104FB0003233343536373839616263646566403080
:104FC000780004000008000000000000000200015A
:104FD0000000100002400000000000A000000000DF
:104FE00005400000000000C8000000000C40000068
:104FF0000000409C00000000194000000020BCBEE2
:105000000000000034400000BFC91B8E00000004F7
:10501000B5400000504BCFD06607E2CF0100000042
:105020006C4100003E8251AADFEEA734010000006F
:10503000D9420000DCB5A0E23A301F97FFFFFFFF26
:10504000B4450000FD25A0C8E9A3C14FFFFFFFFF45
:10505000FF3F00000000008000000000FF3F000054
:105060000000008000000000244750524D432C25D2
:1050700030326425303264253032642E30302C4199
:105080002C333031362E363938323738302C4E2CDE
:1050900031323030322E333832343432332C452CE6
:1050A000322E3032352C3131392E352C25303264C8
:1050B00025303264253032642C302E302C452C447F
:1050C0002A253032580D0A004750524D432C2530C6
:1050D000326425303264253032642E30302C412C3D
:1050E000333031362E363938323738302C4E2C3179
:1050F000323030322E333832343432332C452C3285
:105100002E3032352C3131392E352C253032642574
:10511000303264253032642C302E302C452C440043
:105120007C520008000000201C0100006C010008F7
:10513000985300081C010020A411000088010008F9
:10514000000000000000F07FFFFFFFFFFFFFEF7F88
:105150001001000043000000F8FFFFFF0040404046
:10516000404040404040414141414140404040403A
:1051700040404040404040404040404040050202E6
:1051800002020202020202020202020202202020A5
:105190002020202020202002020202020202909001
:1051A00090909090101010101010101010101010FF
:1051B0001010101010101010020202020202888853
:1051C000888888880808080808080808080808085F
:1051D0000808080808080808020202024000000047
:1051E00000000000000000000000000000000000BF
:1051F00000000000000000000000000000000000AF
:10520000000000000000000000000000000000009E
:10521000000000000000000000000000000000008E
:10522000000000000000000000000000000000007E
:10523000000000000000000000000000000000006E
:10524000000000000000000000000000000000005E
:10525000000000000000000000000000000000004E
:105260001C00000043000000F8FFFFFF0C000000DE
:105270000E0000000F0000002E00000000000000E3
:1052800001020304010203040607080902040608D8
:10529000FA00960000000000FA0300201C01002024
:1052A000003801404400024000200000FA00640081
:1052B00000000000F4040020B2010020004400407F
:1052C0006C00024000002000FA00640000000000B2
:1052D000EE05002016020020004800401C0002409D
:1052E00020000000FA00800000000000E806002016
:1052F0007A020020003801405800024000000100FE
:10530000FA00800000000000E2070020FA020020FE
:10531000004400408000024000000001FA008000CC
:1053200000000000DC0800207A0300200048004054
:1053300030000240000100000000000000000001F9
:105340000000E8030000000014010100000000005C
:105350001401010000000000000000000000000037
:10536000000000000000000000000000000000003D
:1053700000000000F30A0020570B0020000001008D
:10538000000000000000000000000000000000001D
:085390000000640000000000B1
:0400000508000131BD
:00000001FF
